{
  "_format": "hh-sol-artifact-1",
  "contractName": "BlackBoxVerification",
  "sourceName": "contracts/BlackBoxVerification.sol",
  "abi": [
    {
      "anonymous": false,
      "inputs": [
        {
          "indexed": true,
          "internalType": "string",
          "name": "requestId",
          "type": "string"
        },
        {
          "indexed": true,
          "internalType": "address",
          "name": "userAddress",
          "type": "address"
        },
        {
          "indexed": false,
          "internalType": "string",
          "name": "licenseType",
          "type": "string"
        },
        {
          "indexed": false,
          "internalType": "bool",
          "name": "isVerified",
          "type": "bool"
        },
        {
          "indexed": false,
          "internalType": "uint256",
          "name": "timestamp",
          "type": "uint256"
        }
      ],
      "name": "VerificationRecorded",
      "type": "event"
    },
    {
      "inputs": [
        {
          "internalType": "string",
          "name": "requestId",
          "type": "string"
        }
      ],
      "name": "getVerificationStatus",
      "outputs": [
        {
          "internalType": "bool",
          "name": "",
          "type": "bool"
        },
        {
          "internalType": "string",
          "name": "",
          "type": "string"
        }
      ],
      "stateMutability": "view",
      "type": "function"
    },
    {
      "inputs": [
        {
          "internalType": "string",
          "name": "requestId",
          "type": "string"
        },
        {
          "internalType": "address",
          "name": "userAddress",
          "type": "address"
        },
        {
          "internalType": "string",
          "name": "licenseType",
          "type": "string"
        },
        {
          "internalType": "bool",
          "name": "isVerified",
          "type": "bool"
        }
      ],
      "name": "recordVerification",
      "outputs": [],
      "stateMutability": "nonpayable",
      "type": "function"
    },
    {
      "inputs": [
        {
          "internalType": "string",
          "name": "",
          "type": "string"
        }
      ],
      "name": "verifications",
      "outputs": [
        {
          "internalType": "address",
          "name": "userAddress",
          "type": "address"
        },
        {
          "internalType": "string",
          "name": "licenseType",
          "type": "string"
        },
        {
          "internalType": "bool",
          "name": "isVerified",
          "type": "bool"
        },
        {
          "internalType": "uint256",
          "name": "timestamp",
          "type": "uint256"
        }
      ],
      "stateMutability": "view",
      "type": "function"
    }
  ],
  "bytecode": "0x6080604052348015600f57600080fd5b50610ceb8061001f6000396000f3fe608060405234801561001057600080fd5b50600436106100415760003560e01c8063042b21671461004657806369b85e1c146100775780639b5b2ef614610093575b600080fd5b610060600480360381019061005b919061062a565b6100c6565b60405161006e92919061070d565b60405180910390f35b610091600480360381019061008c91906107c7565b610217565b005b6100ad60048036038101906100a8919061062a565b6103d5565b6040516100bd949392919061088e565b60405180910390f35b60006060600080846040516100db9190610916565b90815260200160405180910390206040518060800160405290816000820160009054906101000a900473ffffffffffffffffffffffffffffffffffffffff1673ffffffffffffffffffffffffffffffffffffffff1673ffffffffffffffffffffffffffffffffffffffff16815260200160018201805461015a9061095c565b80601f01602080910402602001604051908101604052809291908181526020018280546101869061095c565b80156101d35780601f106101a8576101008083540402835291602001916101d3565b820191906000526020600020905b8154815290600101906020018083116101b657829003601f168201915b505050505081526020016002820160009054906101000a900460ff161515151581526020016003820154815250509050806040015181602001519250925050915091565b6000846040516102279190610916565b908152602001604051809103902060020160009054906101000a900460ff1615610286576040517f08c379a000000000000000000000000000000000000000000000000000000000815260040161027d906109d9565b60405180910390fd5b60405180608001604052808473ffffffffffffffffffffffffffffffffffffffff1681526020018381526020018215158152602001428152506000856040516102cf9190610916565b908152602001604051809103902060008201518160000160006101000a81548173ffffffffffffffffffffffffffffffffffffffff021916908373ffffffffffffffffffffffffffffffffffffffff16021790555060208201518160010190816103399190610ba5565b5060408201518160020160006101000a81548160ff021916908315150217905550606082015181600301559050508273ffffffffffffffffffffffffffffffffffffffff168460405161038c9190610916565b60405180910390207f433e2b15b30b2004fa2c521752d50c2ca62c465cff1197d1dbe860836a758d4a8484426040516103c793929190610c77565b60405180910390a350505050565b6000818051602081018201805184825260208301602085012081835280955050505050506000915090508060000160009054906101000a900473ffffffffffffffffffffffffffffffffffffffff16908060010180546104349061095c565b80601f01602080910402602001604051908101604052809291908181526020018280546104609061095c565b80156104ad5780601f10610482576101008083540402835291602001916104ad565b820191906000526020600020905b81548152906001019060200180831161049057829003601f168201915b5050505050908060020160009054906101000a900460ff16908060030154905084565b6000604051905090565b600080fd5b600080fd5b600080fd5b600080fd5b6000601f19601f8301169050919050565b7f4e487b7100000000000000000000000000000000000000000000000000000000600052604160045260246000fd5b610537826104ee565b810181811067ffffffffffffffff82111715610556576105556104ff565b5b80604052505050565b60006105696104d0565b9050610575828261052e565b919050565b600067ffffffffffffffff821115610595576105946104ff565b5b61059e826104ee565b9050602081019050919050565b82818337600083830152505050565b60006105cd6105c88461057a565b61055f565b9050828152602081018484840111156105e9576105e86104e9565b5b6105f48482856105ab565b509392505050565b600082601f830112610611576106106104e4565b5b81356106218482602086016105ba565b91505092915050565b6000602082840312156106405761063f6104da565b5b600082013567ffffffffffffffff81111561065e5761065d6104df565b5b61066a848285016105fc565b91505092915050565b60008115159050919050565b61068881610673565b82525050565b600081519050919050565b600082825260208201905092915050565b60005b838110156106c85780820151818401526020810190506106ad565b60008484015250505050565b60006106df8261068e565b6106e98185610699565b93506106f98185602086016106aa565b610702816104ee565b840191505092915050565b6000604082019050610722600083018561067f565b818103602083015261073481846106d4565b90509392505050565b600073ffffffffffffffffffffffffffffffffffffffff82169050919050565b60006107688261073d565b9050919050565b6107788161075d565b811461078357600080fd5b50565b6000813590506107958161076f565b92915050565b6107a481610673565b81146107af57600080fd5b50565b6000813590506107c18161079b565b92915050565b600080600080608085870312156107e1576107e06104da565b5b600085013567ffffffffffffffff8111156107ff576107fe6104df565b5b61080b878288016105fc565b945050602061081c87828801610786565b935050604085013567ffffffffffffffff81111561083d5761083c6104df565b5b610849878288016105fc565b925050606061085a878288016107b2565b91505092959194509250565b61086f8161075d565b82525050565b6000819050919050565b61088881610875565b82525050565b60006080820190506108a36000830187610866565b81810360208301526108b581866106d4565b90506108c4604083018561067f565b6108d1606083018461087f565b95945050505050565b600081905092915050565b60006108f08261068e565b6108fa81856108da565b935061090a8185602086016106aa565b80840191505092915050565b600061092282846108e5565b915081905092915050565b7f4e487b7100000000000000000000000000000000000000000000000000000000600052602260045260246000fd5b6000600282049050600182168061097457607f821691505b6020821081036109875761098661092d565b5b50919050565b7f566572696669636174696f6e20616c7265616479207265636f72646564000000600082015250565b60006109c3601d83610699565b91506109ce8261098d565b602082019050919050565b600060208201905081810360008301526109f2816109b6565b9050919050565b60008190508160005260206000209050919050565b60006020601f8301049050919050565b600082821b905092915050565b600060088302610a5b7fffffffffffffffffffffffffffffffffffffffffffffffffffffffffffffffff82610a1e565b610a658683610a1e565b95508019841693508086168417925050509392505050565b6000819050919050565b6000610aa2610a9d610a9884610875565b610a7d565b610875565b9050919050565b6000819050919050565b610abc83610a87565b610ad0610ac882610aa9565b848454610a2b565b825550505050565b600090565b610ae5610ad8565b610af0818484610ab3565b505050565b5b81811015610b1457610b09600082610add565b600181019050610af6565b5050565b601f821115610b5957610b2a816109f9565b610b3384610a0e565b81016020851015610b42578190505b610b56610b4e85610a0e565b830182610af5565b50505b505050565b600082821c905092915050565b6000610b7c60001984600802610b5e565b1980831691505092915050565b6000610b958383610b6b565b9150826002028217905092915050565b610bae8261068e565b67ffffffffffffffff811115610bc757610bc66104ff565b5b610bd1825461095c565b610bdc828285610b18565b600060209050601f831160018114610c0f5760008415610bfd578287015190505b610c078582610b89565b865550610c6f565b601f198416610c1d866109f9565b60005b82811015610c4557848901518255600182019150602085019450602081019050610c20565b86831015610c625784890151610c5e601f891682610b6b565b8355505b6001600288020188555050505b505050505050565b60006060820190508181036000830152610c9181866106d4565b9050610ca0602083018561067f565b610cad604083018461087f565b94935050505056fea2646970667358221220ad917aabd944be7e55a8b91f2f9ebfe95193776ff5e30e0f4a6a1e77ee6d2e1964736f6c634300081a0033",
  "linkReferences": {},
  "deployedLinkReferences": {}
}